:030000000202B445
:0C02B400787FE4F6D8FD7581110202FB92
:04000E000210001EBE
:0C03A300120340AF11AE1012036880FE80
:10001200020C000002080000020E0000020A0000AA
:10038600E4FFFEE4FDFC0DBD00010CED64024C70C3
:0C039600F50FBF00010EBE07EABFD0E764
:0103A2002238
:10034000758922759850758DFD758BFD758AF575CB
:100350008CF5D2A9D28CD28ED2AFD2ACD2BCE4F57D
:080360000CF50DF508F509226A
:10036800C3EF9401EE9400400ED3EF9463EE940033
:0E03780050058E0C8F0D22750C00750D0122A4
:03000B00020026CA
:10002600C0E0C0D075D000C000C006C007E50B45D3
:100036000A700BC292C293C295C296020215E50BD4
:100046006401450A70300509E50970020508C29386
:10005600D292C296D295D3950DE508950C500280A2
:1000660036C291C294C3E5099464E508940050032E
:1000760002021502020FE50B6402450A70350509F6
:10008600E50970020508C292D293D296C295D3951D
:100096000DE508950C5007D291D294020215C29133
:1000A600C294C3E5099464E508940050030202155E
:1000B60002020FE50B6403450A70510509E5097054
:1000C600020508C293D292C296D295D3950DE50841
:1000D600950C5023D291E50DAE0C7802CEC313CE0B
:1000E60013D8F9FFD3E5099FE5089E5005D294027F
:1000F6000215C294020215C291C294C3E509946422
:10010600E5089400500302021502020FE50B640491
:10011600450A70510509E50970020508C293D29295
:10012600C296D295D3950DE508950C5023D294E549
:100136000DAE0C7802CEC313CE13D8F9FFD3E50962
:100146009FE5089E5005D291020215C29102021542
:10015600C291C294C3E5099464E508940050030271
:10016600021502020FE50B6405450A704B0509E509
:100176000970020508C292D293D296C295D3950D04
:10018600E508950C5021D291E50DAE0C7802CEC350
:1001960013CE13D8F9FFD3E5099FE5089E5004D284
:1001A60094806CC2948068C291C294C3E509946439
:1001B600E508940040598051E50B6406450A704FE6
:1001C6000509E50970020508C292D293D296C29536
:1001D600D3950DE508950C5021D294E50DAE0C781B
:1001E60002CEC313CE13D8F9FFD3E5099FE5089EC7
:1001F6005004D2918019C2918015C291C294C3E570
:10020600099464E50894004006750800750900D055
:0A02160007D006D000D0D0D0E032AF
:03002300020220B6
:10022000C0E0C0D075D000C006C007C298AF9975B5
:100230000E008F0FE50F6431450E7007F50A750B40
:10024000018057E50F6430450E7006F50AF50B8006
:100250004FE50F6432450E7007F50A750B02803AC0
:10026000E50F6433450E7007F50A750B03802BE527
:100270000F6434450E7007F50A750B04801CE50FFA
:100280006435450E7007F50A750B05800DE50F64A2
:1002900036450E700BF50A750B067F1EFE120368BD
:1002A000C2ACD2993099FDC299D2ACD007D006D059
:0402B000D0D0E03298
:1002C0000203A3E493A3F8E493A34003F68001F2AE
:1002D00008DFF48029E493A3F85407240CC8C3333F
:1002E000C4540F4420C8834004F456800146F6DF0E
:1002F000E4800B010204081020408090000EE47E90
:10030000019360BCA3FF543F30E509541FFEE49302
:10031000A360010ECF54C025E060A840B8E493A3C9
:10032000FAE493A3F8E493A3C8C582C8CAC583CAF4
:10033000F0A3C8C582C8CAC583CADFE9DEE780BEAC
:0100220000DD
:00000001FF
